:0C00000010C0FECFFDCFFCCFFBCFFACF2D
:10000C00F9CFF8CFF7CFF6CFF5CFF4CFF3CFF2CFC0
:10001C00F1CFF0CFEFCFF894EE27ECBBE5BF8DE03E
:10002C00A2E0ED938A95E9F780E8A0E6ED938A9536
:10003C00E9F7E0E0E3BBE4BBE5BBEFEDEDBFC0E807
:10004C0000C0E0E8E6BDE0E0E6BDEFEFEABBE1E0D2
:10005C00EBBBA4EFB1E00AD0EBB3EE0FEBBBEBB311
:10006C00E03011F4E1E0EBBBF4CFFFCF109639F0A8
:10007C0080ED97E00197F1F7A8951197C9F70895CE
:00000001FF
