:1000000009C018951895189518951895189518956C
:10001000189518958FE98DBFC8E7E0E64E2EDD27CD
:100020005D2EA89584B7082E877F84BF88E1992725
:1000300081BD91BDEEE3F0E0A0E6B0E088278D93AE
:100040003197E9F76624B89AB99ABA9AC098C198D4
:10005000C29A80E797E118D0C098C19AC29880ED03
:1000600097E012D0C09AC198C29880E797E10CD06F
:10007000EDCFF894FFCF3197F1F70895689462F8C7
:100080000895E89462F80895EF93FF93EE27E82B24
:10009000E92B31F0E8E7F0E03197F1F70197D1F77C
:0600A000FF91EF910895AD
:00000001FF
