:1000000003308A00CE2B00000C000C2AE53670105D
:10001000E9392026EF3B00010C2AE5367010E9395A
:1000200020276F39ED306C000C2AE5367010E93965
:100030002024C92348002C308400831300080319AE
:100040002E280630F800F701F70B2428F80B232898
:100050007B30F700F70B2A28800B21280800321884
:100060003328061234280616831606128312B21895
:100070003B2886123C288616831686128312321974
:100080004328061344280617831606138312B21951
:100090004B2886134C28861783168613000083127C
:1000A0000614831606100330F700F70B5528831249
:1000B00006108316061083120800B3018316061675
:1000C00000308312061A0130B304831686160030FE
:1000D0008312861A0130F7000310F70D7708B30476
:1000E0008316061700308312061B0130F700F70D48
:1000F000F70DFC30F7057708B30483168617003038
:100100008312861B0130F700F70DF70DF70DF8305D
:10011000F7057708B3043308F800080083160610C3
:100120008610061183128610831686100616861610
:100130000617861783120615831606110000831210
:10014000061483160610000083125D207808B200A2
:10015000061083160610000083120614831606107C
:10016000B128B228000083125D207808B100061083
:100170008316061006128612061386138312320E99
:10018000F700F030F70577083104F8007808B1007F
:10019000B11FCC2883169628AF08031DD1288610DE
:1001A000D228861483168610000083120611831647
:1001B0000611000083120610831606108312300EFB
:1001C000B1000F30B1053108B2002F2030080F39CF
:1001D000B100B2002F2008002830A8000C30A90080
:1001E0000130AA000630AB000610831606108312F9
:1001F00086108316861083120611831606110612C6
:100200008612061386130610861006110F3083120D
:10021000AC001B200130A7002708033C031C182951
:100220000330B2002F200530AC001B20A70A0C2998
:100230000230B2002F200530AC001B20A701270898
:10024000033C031C2F292830270784008313000850
:10025000AC00AF012C08B0008E20A70A1F298A111C
:100260000A12F22B8E30F7002808F8002708F90050
:10027000FA01F808031D46297908F800F901083049
:10028000F702F808031D4629F7014E290310F81B51
:100290004D29F90DF80DF7034629F8138A110A12B2
:1002A000102C34080319C129BC0038080319C129CE
:1002B000BC07031862297F30BC02031CC129031943
:1002C000C12966298130BC070318C1293C08F70001
:1002D000F801F901FA013508C000C0173608BF005F
:1002E0003708BE001830BC00BD013E1C8F293B08FA
:1002F000FA07031C8129F90A031D8129F80A031949
:10030000BD173A08F907031C8829F80A0319BD1715
:100310003908B600B6173608F8070318BD17BD0D23
:10032000F80CF90CFA0CC00CBF0CBE0C0310BC0B83
:1003300074290130F7070318C129F81BA629C00D3D
:10034000FA0DF90DF80DF7030319C129C01FB729DC
:10035000FA0A031DB729F90A031DB729F80A031D74
:10036000B729F80CF90CFA0CF70A0319C12935085A
:10037000BD003908BD06BD1FBF29F817C529F813F0
:10038000C529F701F801F901FA0108008318CB2902
:100390003C3084008313F701F801F901FA01BC0134
:1003A000BD01BE01BF013B083A04390438040319FA
:1003B000092A2030C0000310B40DB50DB60DB70DDD
:1003C000BC0DBD0DBE0DBF0D3B083F02031DF22944
:1003D0003A083E02031DF22939083D02031DF229A5
:1003E00038083C02031C032A3808BC023908031CE5
:1003F000390FBD023A08031C3A0FBE023B08031C2A
:100400003B0FBF020314F70DF80DF90DFA0DC00BE9
:10041000DB293C088000840A3D088000840A3E08ED
:100420008000840A3F08800008000408AC002B0804
:10043000AE000319342A2A08B7002908B600280894
:10044000B5002708B400BB01BA012030B9008230E2
:10045000B80051217A08AA007908A9007808A800F4
:100460007708A700AE0B1B2A2A08B7002908B60098
:100470002808B5002708B4003408B63CB400FA01D7
:100480003508B800B5170310B50CB60CB70CFA0C4C
:10049000F90CF80CF70CB40B432AB81F5A2AF709C9
:1004A000F809F909FA09F70A0319F80A0319F90A08
:1004B0000319FA0A7A08AA007908A9007808A8009E
:1004C0007708A700AA1F712AAC03AC16A709A809D0
:1004D000A909AA09A70A0319A80A0319A90A03194D
:1004E000AA0A3B30B3009A30B200CA30B100B00162
:1004F0000A30AE002B080319AC0A8314273084009D
:1005000083132A08B7002908B6002808B500270871
:10051000B4003308BB003208BA003108B900300813
:10052000B800C6217808F708031DA92A2B0A2E0255
:100530000319A92A2C080319AB2A0F392E02031913
:10054000A32A0318DF2AAC1BDF2A2C1BAB2A20307E
:10055000DA2A2030AC05AC1EBA2AAC122B08031DD7
:10056000AC037708AC002D300C1EB42A99002C087F
:10057000F700AC012B082E02031DC92A7708AC0036
:100580002E300C1EC12A99002C08F7002030AC0533
:1005900000303030AC1EDA2AAC122B08031DAC033D
:1005A0007708AC002D300C1ED32A99002C08F700D8
:1005B000AC013030F70777080C1EDC2A9900831055
:1005C0003308B7003208B6003108B5003008B4006F
:1005D000BB01BA01B9010A30B800C6217A08B300DC
:1005E0007908B2007808B1007708B000AE0B7D2A18
:1005F0008A110A123E2C2C0BFE2A012B4030AD0032
:10060000022BAD0101302B02AD072D088038AE0062
:10061000AF012E08B0008E2008002A08073A0319FF
:100620001B2B0B3A0319202B063A0319282B023AED
:1006300003192E2B332B0130AB00AC00FB22382BDF
:10064000AF010130B0008E200230AC001B20382BEF
:100650000130AB000230AC00FB22382BAF01103070
:10066000B0008E20382B0130AF002A08B0008E2059
:1006700008000B08A7008B13831603178C170C14A4
:100680000000000083120313A71B8B1703170C082D
:100690007F3903198D2B0313A70003170D080313CC
:1006A000A80003170F080313A9002708AA000D23A9
:1006B000280803178D000313290803178F0003135D
:1006C0000B08AA008B13831603178C170C14000059
:1006D000000083120313AA1B8B1703170C0D0E0DBA
:1006E0007F3903198D2B0313A70003170D0803137C
:1006F000A80003170F080313A9002708AA000D2359
:10070000280803178D000313290803178F008D0A8B
:1007100003198F0A0313392B031703130800280842
:10072000AF002C08AF06AF1F9A2B03110310A81BB4
:100730000314CD2B2808AF002B08B0002708B00207
:100740000319A82BAF1FCD2B0308013A8300CD2B33
:100750002C08B0002808B0020319B42BAF1FCD2B12
:100760000308013A8300CD2B2D08B0002908B00200
:100770000319C02BAF1FCD2B0308013A8300CD2BEB
:100780002E08B0002A08B0020319CC2BAF1FCD2BC6
:100790000308013A8300CD2B0310080003081F391A
:1007A0008300813083169900A63098009030831220
:1007B0009800A101A001FF30A20083161F149F140E
:1007C0001F159F1107309C0083131F109F141F15C6
:1007D0009F151F1383121F179F1783169F178312CE
:1007E0001F14EC280430A700FA30AC001B20A70B24
:1007F000F42B0030F8001F08C73978049F00103030
:10080000F700F70B012C00001F151F19052C1E08FF
:10081000FA0083161E088312A7001E08A8003229BA
:100820007A08A6007908A5007808A4007708A30034
:100830002608B7002508B6002408B5002308B40030
:10084000FE30BB00D430BA007830B9007D30B8003B
:1008500051217A08A6007908A5007808A400770835
:10086000A300893084002608AA002508A9002408CE
:10087000A8002308A7000230AB00152A0A300C1E7E
:100880003F2C99000230A700FA30AC001B20A70BC8
:10089000442C043003178D0000308F0003133923DC
:1008A0002608AA002508A9002408A8002308A700F4
:1008B000AE01AD017030AC008230AB008F23031C61
:1008C000722C0030A200831687010130831287004A
:1008D0006430AC001B20053003178D0000308F0002
:1008E00003133923AA01A9017030A8008230A700A0
:1008F0002608AE002508AD002408AC002308AB0094
:100900008F230318852C031DA72C2608AA00250871
:10091000A9002408A8002308A700AE01AD0170308B
:10092000AC008330AB008F23031CA72C0030A20047
:10093000831687010230831287006430AC001B20CD
:100940000C3003178D0000308F0003133923AA01E8
:10095000A9017030A8008330A7002608AE00250842
:10096000AD002408AC002308AB008F230318BA2C79
:10097000031DCB2C0030A2008316870104308312A4
:1009800087006430AC001B20143003178D0000304A
:0A0990008F0003133923F92B6300D5
:02400E00422F3F
:00000001FF
;PIC16F877A
;CRC=40F9  CREATED="07-Jun-20 01:13"
