:1000000001308A00AC290000F4326D386539613A5C
:100010007539E51E00002C30840083130008031995
:1000200017285230F700F70B1328800B112808000F
:10003000350EF039F7000F30060577048600000012
:100040000614061008000608F700060E0F39F8001F
:1000500008008316061086100611831286100F30D2
:1000600083160605F0388600831206150000061474
:10007000000023207808B500061000000614232095
:100080007808B40006100F30831606058600831228
:10009000350EF700F030F70577083404F8007808DB
:1000A000B400B41B2F28321C8610321886140000AE
:1000B000061100000610330EB4000F30B4053408EA
:1000C000B500182033080F39B400B5001820080017
:1000D0002830A8000C30A9000130AA000630AB007F
:1000E0000610861006110F308316060586000610CE
:1000F000861006110F308312AC000B200130A700D0
:100100002708033C031C8C280330B5001820053059
:10011000AC000B20A70A80280230B500182005305B
:10012000AC000B20A7012708033C031CA3282830A0
:100130002707840083130008AC00B2012C08B30029
:100140002920A70A93288A110A12C2292F0BA9284D
:10015000AC284030B000AD28B00101302E02B0070D
:1001600030088038B100B2013108B30029200800FE
:100170002D08073A0319C6280B3A0319CB28063A6B
:100180000319D528023A0319DB28E0280130AE0014
:10019000AF00A620E528B2010130B3002920A63027
:1001A000F700F70BD1280000E5280130AE0002303F
:1001B000AF00A620E528B2011030B3002920E528C1
:1001C0000130B2002D08B300292008000B08A70059
:1001D0008B13831603178C170C1400000000831276
:1001E0000313A71B8B1703170C087F3903193A2930
:1001F0000313A70003170D080313A80003170F0824
:100200000313A9002708AD00B820280803178D00A4
:100210000313290803178F0003130B08AA008B137D
:10022000831603178C170C140000000083120313AD
:10023000AA1B8B1703170C0D0E0D7F3903193A29D2
:100240000313A70003170D080313A80003170F08D3
:100250000313A9002708AD00B820280803178D0054
:100260000313290803178F008D0A03198F0A03133C
:10027000E628031703138A110A12C9292E08F80168
:100280002D02031846292D08F7005229F7010830DE
:10029000AF00AD0DF70D2E0877020318F700F80D2B
:1002A000AF0B492908002030281E3030A90027084C
:1002B000F700A71F6329F709F70A7708A7002D3071
:1002C000A900A81728142708AD006430AE003E210D
:1002D0007708A70030307807AA002708AD000A3059
:1002E000AE003E2130307707AC0030307807AB00ED
:1002F0002908F70030302A0203198229A814A81B04
:10030000281596292908AA002030A90030302B0290
:1003100003198E292814A81BA8149629031D281434
:10032000031D96292A08AB002030AA0028199D2910
:10033000A818A0292818A329A6292908AD00B820A3
:100340002A08AD00B8202B08AD00B8202C08AD005D
:10035000B8208A110A12DC2903081F398300A10181
:10036000A00183161F149F141F159F1107309C00B6
:1003700083131F1383121F179F1783169F17831250
:100380001F146828043003178D0000308F000313FA
:10039000E6280030F8001F08C73978049F00D029EC
:1003A0001F151F19D12983161E088312A2002208C7
:0C03B000A7001830A8005329C2296300E0
:02400E00422F3F
:00000001FF
;PIC16F877A
;CRC=9436  CREATED="05-Jun-20 02:13"
