:0400000009C0FECF66
:10000400FDCFFCCFFBCFFACFF9CFF8CFF7CFF6CFA8
:10001400F894EE27ECBBE5BF8DE0A2E0ED938A9562
:10002400E9F780E4A0E6ED938A95E9F7EFE9EDBFFF
:10003400C0E700C0E0E8E6BDE0E0E6BDE7E0E7BB1E
:10004400E0E0E8BBC098C198C29AA0E7B7E10ED03F
:10005400C098C19AC298A0EDB7E008D0C09AC198E0
:10006400C298A0E7B7E102D0EDCFFFCF109639F0E8
:1000740080EB94E00197F1F7A8951197C9F70895DB
:00000001FF
