:1000000010C0189518951895189518951895189565
:100010001895189518951895189518951895189578
:1000200018958FED8DBFC8EBE0EA4E2EDD275D2ED3
:10003000A89584B7082E877F84BF88E1992781BD62
:1000400091BDEEE7F0E0A0E6B0E088278D93319710
:10005000E9F766248FEF8ABBD898D89A84EF91E0AD
:1000600030D0D898D99A84EF91E02BD0D998DA9AE9
:1000700084EF91E026D0DA98DB9A84EF91E021D0EA
:10008000DB98DC9A84EF91E01CD0DC98DD9A84EF59
:1000900091E017D0DD98DE9A84EF91E012D0DE98DF
:1000A000DF9A84EF91E00DD0DF98D6CFF894FFCFA0
:1000B0003197F1F70895689462F80895E89462F82A
:1000C0000895EF93FF93EE27E82BE92B31F0E8EC4E
:1000D000F0E03197F1F70197D1F7FF91EF91089593
:00000001FF
