:1000000000308A00172800004630840000080319D9
:1000100016280630C100C001C00B0C28C10B0B28EC
:100020007B30C000C00B1228800B09280800030891
:100030001F3983008801F83086000510860085107E
:10004000860005151830C500FA30C6000420C50B1F
:100050002428F830860005108600851486000511D6
:100060000830C500FA30C6000420C50B3228F8302D
:100070008600051486008510860005111830C5001D
:0E008000FA30C6000420C50B40281B28630080
:02400E00C73EAB
:00000001FF
;PIC10LF322
;CRC=AF26  CREATED="17-Nov-19 23:15"
